{
  "contractName": "EscrowPayments",
  "abi": [
    {
      "inputs": [],
      "stateMutability": "nonpayable",
      "type": "constructor"
    },
    {
      "anonymous": false,
      "inputs": [
        {
          "indexed": false,
          "internalType": "uint256",
          "name": "index",
          "type": "uint256"
        }
      ],
      "name": "debugLog",
      "type": "event"
    },
    {
      "inputs": [
        {
          "internalType": "uint256",
          "name": "",
          "type": "uint256"
        }
      ],
      "name": "items",
      "outputs": [
        {
          "internalType": "string",
          "name": "title",
          "type": "string"
        },
        {
          "internalType": "uint256",
          "name": "price",
          "type": "uint256"
        },
        {
          "internalType": "bytes1",
          "name": "status",
          "type": "bytes1"
        },
        {
          "internalType": "address payable",
          "name": "buyer",
          "type": "address"
        }
      ],
      "stateMutability": "view",
      "type": "function",
      "constant": true
    },
    {
      "inputs": [],
      "name": "owner",
      "outputs": [
        {
          "internalType": "address payable",
          "name": "",
          "type": "address"
        }
      ],
      "stateMutability": "view",
      "type": "function",
      "constant": true
    },
    {
      "inputs": [],
      "name": "ttp",
      "outputs": [
        {
          "internalType": "address",
          "name": "",
          "type": "address"
        }
      ],
      "stateMutability": "view",
      "type": "function",
      "constant": true
    },
    {
      "inputs": [
        {
          "internalType": "string",
          "name": "title",
          "type": "string"
        },
        {
          "internalType": "uint256",
          "name": "price",
          "type": "uint256"
        }
      ],
      "name": "addItem",
      "outputs": [],
      "stateMutability": "nonpayable",
      "type": "function"
    },
    {
      "inputs": [],
      "name": "listItems",
      "outputs": [
        {
          "components": [
            {
              "internalType": "string",
              "name": "title",
              "type": "string"
            },
            {
              "internalType": "uint256",
              "name": "price",
              "type": "uint256"
            },
            {
              "internalType": "bytes1",
              "name": "status",
              "type": "bytes1"
            },
            {
              "internalType": "address payable",
              "name": "buyer",
              "type": "address"
            }
          ],
          "internalType": "struct EscrowPayments.Item[]",
          "name": "",
          "type": "tuple[]"
        }
      ],
      "stateMutability": "view",
      "type": "function",
      "constant": true
    },
    {
      "inputs": [
        {
          "internalType": "address",
          "name": "_ttp",
          "type": "address"
        }
      ],
      "name": "addTTP",
      "outputs": [],
      "stateMutability": "nonpayable",
      "type": "function"
    },
    {
      "inputs": [
        {
          "internalType": "string",
          "name": "title",
          "type": "string"
        }
      ],
      "name": "buyItem",
      "outputs": [],
      "stateMutability": "payable",
      "type": "function",
      "payable": true
    },
    {
      "inputs": [
        {
          "internalType": "string",
          "name": "title",
          "type": "string"
        },
        {
          "internalType": "bool",
          "name": "status",
          "type": "bool"
        }
      ],
      "name": "confirmPurchase",
      "outputs": [],
      "stateMutability": "nonpayable",
      "type": "function"
    },
    {
      "inputs": [
        {
          "internalType": "string",
          "name": "title",
          "type": "string"
        },
        {
          "internalType": "bytes1",
          "name": "status",
          "type": "bytes1"
        }
      ],
      "name": "handleDispute",
      "outputs": [],
      "stateMutability": "nonpayable",
      "type": "function"
    },
    {
      "inputs": [
        {
          "internalType": "string",
          "name": "title",
          "type": "string"
        }
      ],
      "name": "receivePayment",
      "outputs": [],
      "stateMutability": "nonpayable",
      "type": "function"
    }
  ],
  "bytecode": "0x608060405234801561001057600080fd5b50336000806101000a81548173ffffffffffffffffffffffffffffffffffffffff021916908373ffffffffffffffffffffffffffffffffffffffff1602179055506000600160146101000a81548160ff021916908315150217905550611e968061007b6000396000f3fe6080604052600436106100915760003560e01c806362d6bbdf1161005957806362d6bbdf146101585780637443159a146101815780638da5cb5b146101ac578063bfb231d2146101d7578063d30c5f601461021757610091565b80630fa3b9dc1461009657806313f19926146100bf578063214270aa146100db578063355eefc8146101045780635064fca61461012f575b600080fd5b3480156100a257600080fd5b506100bd60048036038101906100b89190611405565b610240565b005b6100d960048036038101906100d49190611461565b610484565b005b3480156100e757600080fd5b5061010260048036038101906100fd9190611461565b61062e565b005b34801561011057600080fd5b506101196109fb565b60405161012691906116ec565b60405180910390f35b34801561013b57600080fd5b506101566004803603810190610151919061174c565b610ba7565b005b34801561016457600080fd5b5061017f600480360381019061017a91906117a5565b610c7d565b005b34801561018d57600080fd5b50610196610e0f565b6040516101a39190611810565b60405180910390f35b3480156101b857600080fd5b506101c1610e35565b6040516101ce919061183a565b60405180910390f35b3480156101e357600080fd5b506101fe60048036038101906101f99190611855565b610e59565b60405161020e94939291906118ea565b60405180910390f35b34801561022357600080fd5b5061023e60048036038101906102399190611962565b610f4e565b005b8160008061024d8361111b565b915091506001151581151514610298576040517f08c379a000000000000000000000000000000000000000000000000000000000815260040161028f90611a0a565b60405180910390fd5b3373ffffffffffffffffffffffffffffffffffffffff16600283815481106102c3576102c2611a2a565b5b906000526020600020906003020160020160019054906101000a900473ffffffffffffffffffffffffffffffffffffffff1673ffffffffffffffffffffffffffffffffffffffff161461034b576040517f08c379a000000000000000000000000000000000000000000000000000000000815260040161034290611aa5565b60405180910390fd5b846000806103588361111b565b9150915060011515811515146103a3576040517f08c379a000000000000000000000000000000000000000000000000000000000815260040161039a90611a0a565b60405180910390fd5b60006103ae8961111b565b509050871561041a577f4300000000000000000000000000000000000000000000000000000000000000600282815481106103ec576103eb611a2a565b5b906000526020600020906003020160020160006101000a81548160ff021916908360f81c0217905550610479565b7f44000000000000000000000000000000000000000000000000000000000000006002828154811061044f5761044e611a2a565b5b906000526020600020906003020160020160006101000a81548160ff021916908360f81c02179055505b505050505050505050565b806000806104918361111b565b9150915060011515811515146104dc576040517f08c379a00000000000000000000000000000000000000000000000000000000081526004016104d390611a0a565b60405180910390fd5b60006104e78561111b565b509050600281815481106104fe576104fd611a2a565b5b906000526020600020906003020160010154670de0b6b3a76400006105239190611af4565b341015610565576040517f08c379a000000000000000000000000000000000000000000000000000000000815260040161055c90611b9a565b60405180910390fd5b7f50000000000000000000000000000000000000000000000000000000000000006002828154811061059a57610599611a2a565b5b906000526020600020906003020160020160006101000a81548160ff021916908360f81c021790555033600282815481106105d8576105d7611a2a565b5b906000526020600020906003020160020160016101000a81548173ffffffffffffffffffffffffffffffffffffffff021916908373ffffffffffffffffffffffffffffffffffffffff1602179055505050505050565b8060008061063b8361111b565b9150915060008054906101000a900473ffffffffffffffffffffffffffffffffffffffff1673ffffffffffffffffffffffffffffffffffffffff163373ffffffffffffffffffffffffffffffffffffffff1614806107095750600282815481106106a8576106a7611a2a565b5b906000526020600020906003020160020160019054906101000a900473ffffffffffffffffffffffffffffffffffffffff1673ffffffffffffffffffffffffffffffffffffffff163373ffffffffffffffffffffffffffffffffffffffff16145b610748576040517f08c379a000000000000000000000000000000000000000000000000000000000815260040161073f90611c2c565b60405180910390fd5b836000806107558361111b565b9150915060011515811515146107a0576040517f08c379a000000000000000000000000000000000000000000000000000000000815260040161079790611a0a565b60405180910390fd5b60006107ab8861111b565b5090507f4300000000000000000000000000000000000000000000000000000000000000600282815481106107e3576107e2611a2a565b5b906000526020600020906003020160020160009054906101000a900460f81b7effffffffffffffffffffffffffffffffffffffffffffffffffffffffffffff191614156108ce5760008054906101000a900473ffffffffffffffffffffffffffffffffffffffff1673ffffffffffffffffffffffffffffffffffffffff166108fc6002838154811061087857610877611a2a565b5b906000526020600020906003020160010154670de0b6b3a764000061089d9190611af4565b9081150290604051600060405180830381858888f193505050501580156108c8573d6000803e3d6000fd5b50610993565b600281815481106108e2576108e1611a2a565b5b906000526020600020906003020160020160019054906101000a900473ffffffffffffffffffffffffffffffffffffffff1673ffffffffffffffffffffffffffffffffffffffff166108fc6002838154811061094157610940611a2a565b5b906000526020600020906003020160010154670de0b6b3a76400006109669190611af4565b9081150290604051600060405180830381858888f19350505050158015610991573d6000803e3d6000fd5b505b7f4500000000000000000000000000000000000000000000000000000000000000600282815481106109c8576109c7611a2a565b5b906000526020600020906003020160020160006101000a81548160ff021916908360f81c02179055505050505050505050565b60606002805480602002602001604051908101604052809291908181526020016000905b82821015610b9e5783829060005260206000209060030201604051806080016040529081600082018054610a5290611c7b565b80601f0160208091040260200160405190810160405280929190818152602001828054610a7e90611c7b565b8015610acb5780601f10610aa057610100808354040283529160200191610acb565b820191906000526020600020905b815481529060010190602001808311610aae57829003601f168201915b50505050508152602001600182015481526020016002820160009054906101000a900460f81b7effffffffffffffffffffffffffffffffffffffffffffffffffffffffffffff19167effffffffffffffffffffffffffffffffffffffffffffffffffffffffffffff191681526020016002820160019054906101000a900473ffffffffffffffffffffffffffffffffffffffff1673ffffffffffffffffffffffffffffffffffffffff1673ffffffffffffffffffffffffffffffffffffffff168152505081526020019060010190610a1f565b50505050905090565b60008054906101000a900473ffffffffffffffffffffffffffffffffffffffff1673ffffffffffffffffffffffffffffffffffffffff163373ffffffffffffffffffffffffffffffffffffffff1614610bff57600080fd5b60001515600160149054906101000a900460ff16151514610c1f57600080fd5b80600160006101000a81548173ffffffffffffffffffffffffffffffffffffffff021916908373ffffffffffffffffffffffffffffffffffffffff16021790555060018060146101000a81548160ff02191690831515021790555050565b60008054906101000a900473ffffffffffffffffffffffffffffffffffffffff1673ffffffffffffffffffffffffffffffffffffffff163373ffffffffffffffffffffffffffffffffffffffff1614610cd557600080fd5b600260405180608001604052808481526020018381526020017f41000000000000000000000000000000000000000000000000000000000000007effffffffffffffffffffffffffffffffffffffffffffffffffffffffffffff19168152602001600073ffffffffffffffffffffffffffffffffffffffff1681525090806001815401808255809150506001900390600052602060002090600302016000909190919091506000820151816000019080519060200190610d969291906111d0565b506020820151816001015560408201518160020160006101000a81548160ff021916908360f81c021790555060608201518160020160016101000a81548173ffffffffffffffffffffffffffffffffffffffff021916908373ffffffffffffffffffffffffffffffffffffffff16021790555050505050565b600160009054906101000a900473ffffffffffffffffffffffffffffffffffffffff1681565b60008054906101000a900473ffffffffffffffffffffffffffffffffffffffff1681565b60028181548110610e6957600080fd5b9060005260206000209060030201600091509050806000018054610e8c90611c7b565b80601f0160208091040260200160405190810160405280929190818152602001828054610eb890611c7b565b8015610f055780601f10610eda57610100808354040283529160200191610f05565b820191906000526020600020905b815481529060010190602001808311610ee857829003601f168201915b5050505050908060010154908060020160009054906101000a900460f81b908060020160019054906101000a900473ffffffffffffffffffffffffffffffffffffffff16905084565b600160009054906101000a900473ffffffffffffffffffffffffffffffffffffffff1673ffffffffffffffffffffffffffffffffffffffff163373ffffffffffffffffffffffffffffffffffffffff1614610fa857600080fd5b816000610fb48261111b565b5090507f440000000000000000000000000000000000000000000000000000000000000060028281548110610fec57610feb611a2a565b5b906000526020600020906003020160020160009054906101000a900460f81b7effffffffffffffffffffffffffffffffffffffffffffffffffffffffffffff19161461106d576040517f08c379a000000000000000000000000000000000000000000000000000000000815260040161106490611cf9565b60405180910390fd5b8360008061107a8361111b565b9150915060011515811515146110c5576040517f08c379a00000000000000000000000000000000000000000000000000000000081526004016110bc90611a0a565b60405180910390fd5b60006110d08861111b565b50905086600282815481106110e8576110e7611a2a565b5b906000526020600020906003020160020160006101000a81548160ff021916908360f81c02179055505050505050505050565b6000806000805b6002805490508110156111c357846040516020016111409190611d55565b604051602081830303815290604052805190602001206002828154811061116a57611169611a2a565b5b906000526020600020906003020160000160405160200161118b9190611e00565b6040516020818303038152906040528051906020012014156111b057600191506111c3565b80806111bb90611e17565b915050611122565b8082935093505050915091565b8280546111dc90611c7b565b90600052602060002090601f0160209004810192826111fe5760008555611245565b82601f1061121757805160ff1916838001178555611245565b82800160010185558215611245579182015b82811115611244578251825591602001919060010190611229565b5b5090506112529190611256565b5090565b5b8082111561126f576000816000905550600101611257565b5090565b6000604051905090565b600080fd5b600080fd5b600080fd5b600080fd5b6000601f19601f8301169050919050565b7f4e487b7100000000000000000000000000000000000000000000000000000000600052604160045260246000fd5b6112da82611291565b810181811067ffffffffffffffff821117156112f9576112f86112a2565b5b80604052505050565b600061130c611273565b905061131882826112d1565b919050565b600067ffffffffffffffff821115611338576113376112a2565b5b61134182611291565b9050602081019050919050565b82818337600083830152505050565b600061137061136b8461131d565b611302565b90508281526020810184848401111561138c5761138b61128c565b5b61139784828561134e565b509392505050565b600082601f8301126113b4576113b3611287565b5b81356113c484826020860161135d565b91505092915050565b60008115159050919050565b6113e2816113cd565b81146113ed57600080fd5b50565b6000813590506113ff816113d9565b92915050565b6000806040838503121561141c5761141b61127d565b5b600083013567ffffffffffffffff81111561143a57611439611282565b5b6114468582860161139f565b9250506020611457858286016113f0565b9150509250929050565b6000602082840312156114775761147661127d565b5b600082013567ffffffffffffffff81111561149557611494611282565b5b6114a18482850161139f565b91505092915050565b600081519050919050565b600082825260208201905092915050565b6000819050602082019050919050565b600081519050919050565b600082825260208201905092915050565b60005b838110156115105780820151818401526020810190506114f5565b8381111561151f576000848401525b50505050565b6000611530826114d6565b61153a81856114e1565b935061154a8185602086016114f2565b61155381611291565b840191505092915050565b6000819050919050565b6115718161155e565b82525050565b60007fff0000000000000000000000000000000000000000000000000000000000000082169050919050565b6115ac81611577565b82525050565b600073ffffffffffffffffffffffffffffffffffffffff82169050919050565b60006115dd826115b2565b9050919050565b6115ed816115d2565b82525050565b600060808301600083015184820360008601526116108282611525565b91505060208301516116256020860182611568565b50604083015161163860408601826115a3565b50606083015161164b60608601826115e4565b508091505092915050565b600061166283836115f3565b905092915050565b6000602082019050919050565b6000611682826114aa565b61168c81856114b5565b93508360208202850161169e856114c6565b8060005b858110156116da57848403895281516116bb8582611656565b94506116c68361166a565b925060208a019950506001810190506116a2565b50829750879550505050505092915050565b600060208201905081810360008301526117068184611677565b905092915050565b6000611719826115b2565b9050919050565b6117298161170e565b811461173457600080fd5b50565b60008135905061174681611720565b92915050565b6000602082840312156117625761176161127d565b5b600061177084828501611737565b91505092915050565b6117828161155e565b811461178d57600080fd5b50565b60008135905061179f81611779565b92915050565b600080604083850312156117bc576117bb61127d565b5b600083013567ffffffffffffffff8111156117da576117d9611282565b5b6117e68582860161139f565b92505060206117f785828601611790565b9150509250929050565b61180a8161170e565b82525050565b60006020820190506118256000830184611801565b92915050565b611834816115d2565b82525050565b600060208201905061184f600083018461182b565b92915050565b60006020828403121561186b5761186a61127d565b5b600061187984828501611790565b91505092915050565b600082825260208201905092915050565b600061189e826114d6565b6118a88185611882565b93506118b88185602086016114f2565b6118c181611291565b840191505092915050565b6118d58161155e565b82525050565b6118e481611577565b82525050565b600060808201905081810360008301526119048187611893565b905061191360208301866118cc565b61192060408301856118db565b61192d606083018461182b565b95945050505050565b61193f81611577565b811461194a57600080fd5b50565b60008135905061195c81611936565b92915050565b600080604083850312156119795761197861127d565b5b600083013567ffffffffffffffff81111561199757611996611282565b5b6119a38582860161139f565b92505060206119b48582860161194d565b9150509250929050565b7f4974656d206e6f7420666f756e642e0000000000000000000000000000000000600082015250565b60006119f4600f83611882565b91506119ff826119be565b602082019050919050565b60006020820190508181036000830152611a23816119e7565b9050919050565b7f4e487b7100000000000000000000000000000000000000000000000000000000600052603260045260246000fd5b7f4f6e6c79207468652062757965722063616e20646f20746869732e0000000000600082015250565b6000611a8f601b83611882565b9150611a9a82611a59565b602082019050919050565b60006020820190508181036000830152611abe81611a82565b9050919050565b7f4e487b7100000000000000000000000000000000000000000000000000000000600052601160045260246000fd5b6000611aff8261155e565b9150611b0a8361155e565b9250817fffffffffffffffffffffffffffffffffffffffffffffffffffffffffffffffff0483118215151615611b4357611b42611ac5565b5b828202905092915050565b7f596f7520646964206e6f742073656e6420656e6f756768206574686572732e00600082015250565b6000611b84601f83611882565b9150611b8f82611b4e565b602082019050919050565b60006020820190508181036000830152611bb381611b77565b9050919050565b7f4f6e6c79204f776e657220616e642042757965722063616e207265636569766560008201527f207061796d656e74732e00000000000000000000000000000000000000000000602082015250565b6000611c16602a83611882565b9150611c2182611bba565b604082019050919050565b60006020820190508181036000830152611c4581611c09565b9050919050565b7f4e487b7100000000000000000000000000000000000000000000000000000000600052602260045260246000fd5b60006002820490506001821680611c9357607f821691505b60208210811415611ca757611ca6611c4c565b5b50919050565b7f4974656d206973206e6f742064697370757465642e0000000000000000000000600082015250565b6000611ce3601583611882565b9150611cee82611cad565b602082019050919050565b60006020820190508181036000830152611d1281611cd6565b9050919050565b600081905092915050565b6000611d2f826114d6565b611d398185611d19565b9350611d498185602086016114f2565b80840191505092915050565b6000611d618284611d24565b915081905092915050565b60008190508160005260206000209050919050565b60008154611d8e81611c7b565b611d988186611d19565b94506001821660008114611db35760018114611dc457611df7565b60ff19831686528186019350611df7565b611dcd85611d6c565b60005b83811015611def57815481890152600182019150602081019050611dd0565b838801955050505b50505092915050565b6000611e0c8284611d81565b915081905092915050565b6000611e228261155e565b91507fffffffffffffffffffffffffffffffffffffffffffffffffffffffffffffffff821415611e5557611e54611ac5565b5b60018201905091905056fea2646970667358221220648f32a58336649ab0b0fcda8892e811f11736ebba3d1d459c4c14a5d195689464736f6c634300080a0033",
  "immutableReferences": {},
  "source": "// SPDX-License-Identifier: MIT\r\npragma solidity >=0.4.0;\r\npragma experimental ABIEncoderV2; //Hint (or distraction): Allows returning arrays from functions\r\n\r\ncontract EscrowPayments {\r\n  address payable public owner;\r\n  address public ttp;\r\n  bool isTtpSet;\r\n  event debugLog(uint index);\r\n\r\n  struct Item {\r\n    string title;\r\n    uint price;\r\n    bytes1 status;\r\n    address payable buyer;\r\n  }\r\n  Item[] public items;\r\n\r\n  constructor() {\r\n    owner = payable(msg.sender);\r\n    isTtpSet = false;\r\n  }\r\n\r\n  modifier onlyTtp {\r\n    require(msg.sender == ttp);\r\n    _;\r\n  }\r\n\r\n  modifier onlyOwner {\r\n    require(msg.sender == owner);\r\n    _;\r\n  }\r\n\r\n  modifier onlyOnce {\r\n    require(isTtpSet == false);\r\n    _;\r\n  }\r\n\r\n  modifier isValidItem(string memory title) {\r\n    (uint i, bool isFound ) = searchItem(title);\r\n    require(\r\n      isFound == true, \"Item not found.\"\r\n    );\r\n    _;\r\n  }\r\n\r\n  modifier isDisputed(string memory title) {\r\n    (uint i, ) = searchItem(title);\r\n    require(\r\n      items[i].status == 'D', \"Item is not disputed.\"\r\n    );\r\n    _;\r\n  }\r\n\r\n  modifier onlyBuyer(string memory title) {\r\n    (uint i, bool isFound) = searchItem(title);\r\n\r\n    require(\r\n      isFound == true, \"Item not found.\"\r\n    );\r\n\r\n    require(\r\n      items[i].buyer == msg.sender, \"Only the buyer can do this.\"\r\n    );\r\n    _;\r\n  }\r\n\r\n  modifier eitherOwnerOrBuyer(string memory title) {\r\n    (uint i, bool isFound) = searchItem(title);\r\n    require(\r\n      msg.sender == owner || msg.sender == items[i].buyer,\r\n      \"Only Owner and Buyer can receive payments.\"\r\n    );\r\n    _;\r\n  }\r\n\r\n\r\n\r\n  function addItem(string memory title, uint price) public onlyOwner {\r\n    items.push(Item(title, price, 'A', payable(0))); // available\r\n  }\r\n\r\n  function listItems() external view returns(Item[] memory) {\r\n    return items;\r\n  }\r\n\r\n  function addTTP(address _ttp) public onlyOwner onlyOnce {\r\n    ttp = _ttp;\r\n    isTtpSet = true;\r\n  }\r\n\r\n  function searchItem(string memory title) internal view returns(uint, bool){\r\n    bool isFound = false;\r\n    uint i;\r\n    for(i = 0; i < items.length; i++) {\r\n      if( keccak256(abi.encodePacked(items[i].title)) == keccak256(abi.encodePacked(title))) {\r\n        isFound = true;\r\n        break;\r\n      }\r\n    }\r\n    return (i, isFound);\r\n  }\r\n\r\n  function buyItem(string memory title) external payable isValidItem(title) {\r\n    (uint i, ) = searchItem(title);\r\n    require(\r\n      msg.value >= 1000000000000000000* items[i].price, \"You did not send enough ethers.\"\r\n    );\r\n\r\n    items[i].status = 'P'; // pending\r\n    items[i].buyer = payable(msg.sender);\r\n  }\r\n\r\n  function confirmPurchase(string memory title, bool status) external onlyBuyer(title) isValidItem(title) {\r\n    (uint i, ) = searchItem(title);\r\n    if (status) {\r\n      items[i].status = 'C'; // confirmed\r\n    } else {\r\n      items[i].status = 'D'; // disputed\r\n    }\r\n  }\r\n\r\n  function handleDispute(string memory title, bytes1 status) external onlyTtp isDisputed(title) isValidItem(title) {\r\n    (uint i, ) = searchItem(title);\r\n    items[i].status = status;\r\n  }\r\n\r\n  function receivePayment(string memory title) external eitherOwnerOrBuyer(title) isValidItem(title) {\r\n    (uint i, ) = searchItem(title);\r\n    if (items[i].status == 'C') {\r\n      owner.transfer(1000000000000000000* items[i].price);\r\n    } else {\r\n      items[i].buyer.transfer(1000000000000000000* items[i].price);\r\n    }\r\n    items[i].status = 'E'; // expired\r\n  }\r\n}\r\n",
  "sourcePath": "C:\\My Data\\Sem7\\Blockchain\\Ehtesham Zahoor\\assignment04IBC\\contracts\\EscrowPayments.sol",
  "compiler": {
    "name": "solc",
    "version": "0.8.10+commit.fc410830.Emscripten.clang"
  },
  "schemaVersion": "3.4.3",
  "updatedAt": "2021-12-12T07:11:14.209Z",
  "networkType": "ethereum",
  "devdoc": {
    "kind": "dev",
    "methods": {},
    "version": 1
  },
  "userdoc": {
    "kind": "user",
    "methods": {},
    "version": 1
  }
}